{
  "contractName": "HelloWorld",
  "abi": [
    {
      "constant": true,
      "inputs": [],
      "name": "SayHello",
      "outputs": [
        {
          "name": "rtn",
          "type": "string"
        }
      ],
      "payable": false,
      "stateMutability": "pure",
      "type": "function"
    }
  ],
  "bytecode": "0x6060604052341561000f57600080fd5b6101578061001e6000396000f300606060405260043610610041576000357c0100000000000000000000000000000000000000000000000000000000900463ffffffff1680633acb315014610046575b600080fd5b341561005157600080fd5b6100596100d4565b6040518080602001828103825283818151815260200191508051906020019080838360005b8381101561009957808201518184015260208101905061007e565b50505050905090810190601f1680156100c65780820380516001836020036101000a031916815260200191505b509250505060405180910390f35b6100dc610117565b6040805190810160405280601181526020017f48656c6c6f20556e697665727365212121000000000000000000000000000000815250905090565b6020604051908101604052806000815250905600a165627a7a723058209561d5a578451f0ccc6b2ee278259813837b776e0a4f8628493fc42edcf50fde0029",
  "source": "pragma solidity ^0.4.21;\n\ncontract HelloWorld {\n\n    function SayHello() pure public returns (string rtn) {\n        rtn = \"Hello Universe!!!\"; \n        return;\n    }\n\n}",
  "sourcePath": "/home/metadojo/org/blockchaindojo/blockchaindevenv/contracts/HelloWorld.sol",
  "compiler": {
    "name": "solc",
    "version": "0.4.21+commit.dfe3193c.Emscripten.clang"
  },
  "schemaVersion": "2.0.0",
  "updatedAt": "2018-04-01T18:49:49.882Z"
}